{
  "_format": "hh3-artifact-1",
  "contractName": "Invoice",
  "sourceName": "contracts/Invoice.sol",
  "abi": [
    {
      "inputs": [
        {
          "internalType": "string",
          "name": "name_",
          "type": "string"
        },
        {
          "internalType": "string",
          "name": "symbol_",
          "type": "string"
        },
        {
          "internalType": "string",
          "name": "baseTokenURI_",
          "type": "string"
        },
        {
          "internalType": "string",
          "name": "metadataExtension_",
          "type": "string"
        },
        {
          "internalType": "address",
          "name": "whitelist_",
          "type": "address"
        }
      ],
      "stateMutability": "nonpayable",
      "type": "constructor"
    },
    {
      "inputs": [],
      "name": "AccessControlBadConfirmation",
      "type": "error"
    },
    {
      "inputs": [
        {
          "internalType": "address",
          "name": "account",
          "type": "address"
        },
        {
          "internalType": "bytes32",
          "name": "neededRole",
          "type": "bytes32"
        }
      ],
      "name": "AccessControlUnauthorizedAccount",
      "type": "error"
    },
    {
      "inputs": [
        {
          "internalType": "address",
          "name": "sender",
          "type": "address"
        },
        {
          "internalType": "uint256",
          "name": "tokenId",
          "type": "uint256"
        },
        {
          "internalType": "address",
          "name": "owner",
          "type": "address"
        }
      ],
      "name": "ERC721IncorrectOwner",
      "type": "error"
    },
    {
      "inputs": [
        {
          "internalType": "address",
          "name": "operator",
          "type": "address"
        },
        {
          "internalType": "uint256",
          "name": "tokenId",
          "type": "uint256"
        }
      ],
      "name": "ERC721InsufficientApproval",
      "type": "error"
    },
    {
      "inputs": [
        {
          "internalType": "address",
          "name": "approver",
          "type": "address"
        }
      ],
      "name": "ERC721InvalidApprover",
      "type": "error"
    },
    {
      "inputs": [
        {
          "internalType": "address",
          "name": "operator",
          "type": "address"
        }
      ],
      "name": "ERC721InvalidOperator",
      "type": "error"
    },
    {
      "inputs": [
        {
          "internalType": "address",
          "name": "owner",
          "type": "address"
        }
      ],
      "name": "ERC721InvalidOwner",
      "type": "error"
    },
    {
      "inputs": [
        {
          "internalType": "address",
          "name": "receiver",
          "type": "address"
        }
      ],
      "name": "ERC721InvalidReceiver",
      "type": "error"
    },
    {
      "inputs": [
        {
          "internalType": "address",
          "name": "sender",
          "type": "address"
        }
      ],
      "name": "ERC721InvalidSender",
      "type": "error"
    },
    {
      "inputs": [
        {
          "internalType": "uint256",
          "name": "tokenId",
          "type": "uint256"
        }
      ],
      "name": "ERC721NonexistentToken",
      "type": "error"
    },
    {
      "inputs": [],
      "name": "EnforcedPause",
      "type": "error"
    },
    {
      "inputs": [],
      "name": "ExpectedPause",
      "type": "error"
    },
    {
      "inputs": [
        {
          "internalType": "uint256",
          "name": "amount",
          "type": "uint256"
        }
      ],
      "name": "InvalidAmount",
      "type": "error"
    },
    {
      "inputs": [
        {
          "internalType": "uint256",
          "name": "dueDate",
          "type": "uint256"
        },
        {
          "internalType": "uint256",
          "name": "currentTime",
          "type": "uint256"
        }
      ],
      "name": "InvalidDueDate",
      "type": "error"
    },
    {
      "inputs": [
        {
          "internalType": "address",
          "name": "issuer",
          "type": "address"
        }
      ],
      "name": "InvalidIssuer",
      "type": "error"
    },
    {
      "inputs": [
        {
          "internalType": "address",
          "name": "recipient",
          "type": "address"
        }
      ],
      "name": "InvalidRecipient",
      "type": "error"
    },
    {
      "inputs": [
        {
          "internalType": "uint256",
          "name": "tokenId",
          "type": "uint256"
        },
        {
          "internalType": "enum IInvoice.Status",
          "name": "from",
          "type": "uint8"
        },
        {
          "internalType": "enum IInvoice.Status",
          "name": "to",
          "type": "uint8"
        }
      ],
      "name": "InvalidStatusTransition",
      "type": "error"
    },
    {
      "inputs": [
        {
          "internalType": "address",
          "name": "whitelist",
          "type": "address"
        }
      ],
      "name": "InvalidWhitelistAddress",
      "type": "error"
    },
    {
      "inputs": [
        {
          "internalType": "uint256",
          "name": "tokenId",
          "type": "uint256"
        }
      ],
      "name": "InvoiceNotFound",
      "type": "error"
    },
    {
      "inputs": [
        {
          "internalType": "address",
          "name": "recipient",
          "type": "address"
        }
      ],
      "name": "RecipientNotWhitelisted",
      "type": "error"
    },
    {
      "anonymous": false,
      "inputs": [
        {
          "indexed": true,
          "internalType": "address",
          "name": "owner",
          "type": "address"
        },
        {
          "indexed": true,
          "internalType": "address",
          "name": "approved",
          "type": "address"
        },
        {
          "indexed": true,
          "internalType": "uint256",
          "name": "tokenId",
          "type": "uint256"
        }
      ],
      "name": "Approval",
      "type": "event"
    },
    {
      "anonymous": false,
      "inputs": [
        {
          "indexed": true,
          "internalType": "address",
          "name": "owner",
          "type": "address"
        },
        {
          "indexed": true,
          "internalType": "address",
          "name": "operator",
          "type": "address"
        },
        {
          "indexed": false,
          "internalType": "bool",
          "name": "approved",
          "type": "bool"
        }
      ],
      "name": "ApprovalForAll",
      "type": "event"
    },
    {
      "anonymous": false,
      "inputs": [
        {
          "indexed": true,
          "internalType": "uint256",
          "name": "tokenId",
          "type": "uint256"
        },
        {
          "indexed": false,
          "internalType": "uint256",
          "name": "amount",
          "type": "uint256"
        },
        {
          "indexed": true,
          "internalType": "address",
          "name": "issuer",
          "type": "address"
        },
        {
          "indexed": false,
          "internalType": "uint256",
          "name": "dueDate",
          "type": "uint256"
        }
      ],
      "name": "InvoiceMinted",
      "type": "event"
    },
    {
      "anonymous": false,
      "inputs": [
        {
          "indexed": false,
          "internalType": "address",
          "name": "account",
          "type": "address"
        }
      ],
      "name": "Paused",
      "type": "event"
    },
    {
      "anonymous": false,
      "inputs": [
        {
          "indexed": true,
          "internalType": "bytes32",
          "name": "role",
          "type": "bytes32"
        },
        {
          "indexed": true,
          "internalType": "bytes32",
          "name": "previousAdminRole",
          "type": "bytes32"
        },
        {
          "indexed": true,
          "internalType": "bytes32",
          "name": "newAdminRole",
          "type": "bytes32"
        }
      ],
      "name": "RoleAdminChanged",
      "type": "event"
    },
    {
      "anonymous": false,
      "inputs": [
        {
          "indexed": true,
          "internalType": "bytes32",
          "name": "role",
          "type": "bytes32"
        },
        {
          "indexed": true,
          "internalType": "address",
          "name": "account",
          "type": "address"
        },
        {
          "indexed": true,
          "internalType": "address",
          "name": "sender",
          "type": "address"
        }
      ],
      "name": "RoleGranted",
      "type": "event"
    },
    {
      "anonymous": false,
      "inputs": [
        {
          "indexed": true,
          "internalType": "bytes32",
          "name": "role",
          "type": "bytes32"
        },
        {
          "indexed": true,
          "internalType": "address",
          "name": "account",
          "type": "address"
        },
        {
          "indexed": true,
          "internalType": "address",
          "name": "sender",
          "type": "address"
        }
      ],
      "name": "RoleRevoked",
      "type": "event"
    },
    {
      "anonymous": false,
      "inputs": [
        {
          "indexed": true,
          "internalType": "uint256",
          "name": "tokenId",
          "type": "uint256"
        },
        {
          "indexed": false,
          "internalType": "enum IInvoice.Status",
          "name": "oldStatus",
          "type": "uint8"
        },
        {
          "indexed": false,
          "internalType": "enum IInvoice.Status",
          "name": "newStatus",
          "type": "uint8"
        }
      ],
      "name": "StatusUpdated",
      "type": "event"
    },
    {
      "anonymous": false,
      "inputs": [
        {
          "indexed": true,
          "internalType": "address",
          "name": "from",
          "type": "address"
        },
        {
          "indexed": true,
          "internalType": "address",
          "name": "to",
          "type": "address"
        },
        {
          "indexed": true,
          "internalType": "uint256",
          "name": "tokenId",
          "type": "uint256"
        }
      ],
      "name": "Transfer",
      "type": "event"
    },
    {
      "anonymous": false,
      "inputs": [
        {
          "indexed": false,
          "internalType": "address",
          "name": "account",
          "type": "address"
        }
      ],
      "name": "Unpaused",
      "type": "event"
    },
    {
      "inputs": [],
      "name": "DEFAULT_ADMIN_ROLE",
      "outputs": [
        {
          "internalType": "bytes32",
          "name": "",
          "type": "bytes32"
        }
      ],
      "stateMutability": "view",
      "type": "function"
    },
    {
      "inputs": [],
      "name": "MINTER_ROLE",
      "outputs": [
        {
          "internalType": "bytes32",
          "name": "",
          "type": "bytes32"
        }
      ],
      "stateMutability": "view",
      "type": "function"
    },
    {
      "inputs": [],
      "name": "PAUSER_ROLE",
      "outputs": [
        {
          "internalType": "bytes32",
          "name": "",
          "type": "bytes32"
        }
      ],
      "stateMutability": "view",
      "type": "function"
    },
    {
      "inputs": [],
      "name": "UPDATER_ROLE",
      "outputs": [
        {
          "internalType": "bytes32",
          "name": "",
          "type": "bytes32"
        }
      ],
      "stateMutability": "view",
      "type": "function"
    },
    {
      "inputs": [
        {
          "internalType": "address",
          "name": "to",
          "type": "address"
        },
        {
          "internalType": "uint256",
          "name": "tokenId",
          "type": "uint256"
        }
      ],
      "name": "approve",
      "outputs": [],
      "stateMutability": "nonpayable",
      "type": "function"
    },
    {
      "inputs": [
        {
          "internalType": "address",
          "name": "owner",
          "type": "address"
        }
      ],
      "name": "balanceOf",
      "outputs": [
        {
          "internalType": "uint256",
          "name": "",
          "type": "uint256"
        }
      ],
      "stateMutability": "view",
      "type": "function"
    },
    {
      "inputs": [
        {
          "internalType": "uint256",
          "name": "tokenId",
          "type": "uint256"
        }
      ],
      "name": "getApproved",
      "outputs": [
        {
          "internalType": "address",
          "name": "",
          "type": "address"
        }
      ],
      "stateMutability": "view",
      "type": "function"
    },
    {
      "inputs": [
        {
          "internalType": "uint256",
          "name": "tokenId",
          "type": "uint256"
        }
      ],
      "name": "getInvoice",
      "outputs": [
        {
          "components": [
            {
              "internalType": "uint256",
              "name": "amount",
              "type": "uint256"
            },
            {
              "internalType": "uint256",
              "name": "dueDate",
              "type": "uint256"
            },
            {
              "internalType": "uint256",
              "name": "apy",
              "type": "uint256"
            },
            {
              "internalType": "enum IInvoice.Status",
              "name": "status",
              "type": "uint8"
            },
            {
              "internalType": "address",
              "name": "issuer",
              "type": "address"
            },
            {
              "internalType": "string",
              "name": "metadataURI",
              "type": "string"
            }
          ],
          "internalType": "struct IInvoice.Data",
          "name": "",
          "type": "tuple"
        }
      ],
      "stateMutability": "view",
      "type": "function"
    },
    {
      "inputs": [
        {
          "internalType": "bytes32",
          "name": "role",
          "type": "bytes32"
        }
      ],
      "name": "getRoleAdmin",
      "outputs": [
        {
          "internalType": "bytes32",
          "name": "",
          "type": "bytes32"
        }
      ],
      "stateMutability": "view",
      "type": "function"
    },
    {
      "inputs": [
        {
          "internalType": "bytes32",
          "name": "role",
          "type": "bytes32"
        },
        {
          "internalType": "address",
          "name": "account",
          "type": "address"
        }
      ],
      "name": "grantRole",
      "outputs": [],
      "stateMutability": "nonpayable",
      "type": "function"
    },
    {
      "inputs": [
        {
          "internalType": "bytes32",
          "name": "role",
          "type": "bytes32"
        },
        {
          "internalType": "address",
          "name": "account",
          "type": "address"
        }
      ],
      "name": "hasRole",
      "outputs": [
        {
          "internalType": "bool",
          "name": "",
          "type": "bool"
        }
      ],
      "stateMutability": "view",
      "type": "function"
    },
    {
      "inputs": [
        {
          "internalType": "address",
          "name": "owner",
          "type": "address"
        },
        {
          "internalType": "address",
          "name": "operator",
          "type": "address"
        }
      ],
      "name": "isApprovedForAll",
      "outputs": [
        {
          "internalType": "bool",
          "name": "",
          "type": "bool"
        }
      ],
      "stateMutability": "view",
      "type": "function"
    },
    {
      "inputs": [
        {
          "internalType": "address",
          "name": "mintTo",
          "type": "address"
        },
        {
          "internalType": "uint256",
          "name": "amount",
          "type": "uint256"
        },
        {
          "internalType": "uint256",
          "name": "dueDate",
          "type": "uint256"
        },
        {
          "internalType": "uint256",
          "name": "apy",
          "type": "uint256"
        },
        {
          "internalType": "address",
          "name": "issuer",
          "type": "address"
        },
        {
          "internalType": "string",
          "name": "metadataURI",
          "type": "string"
        }
      ],
      "name": "mint",
      "outputs": [
        {
          "internalType": "uint256",
          "name": "",
          "type": "uint256"
        }
      ],
      "stateMutability": "nonpayable",
      "type": "function"
    },
    {
      "inputs": [],
      "name": "name",
      "outputs": [
        {
          "internalType": "string",
          "name": "",
          "type": "string"
        }
      ],
      "stateMutability": "view",
      "type": "function"
    },
    {
      "inputs": [
        {
          "internalType": "uint256",
          "name": "tokenId",
          "type": "uint256"
        }
      ],
      "name": "ownerOf",
      "outputs": [
        {
          "internalType": "address",
          "name": "",
          "type": "address"
        }
      ],
      "stateMutability": "view",
      "type": "function"
    },
    {
      "inputs": [],
      "name": "pause",
      "outputs": [],
      "stateMutability": "nonpayable",
      "type": "function"
    },
    {
      "inputs": [],
      "name": "paused",
      "outputs": [
        {
          "internalType": "bool",
          "name": "",
          "type": "bool"
        }
      ],
      "stateMutability": "view",
      "type": "function"
    },
    {
      "inputs": [
        {
          "internalType": "bytes32",
          "name": "role",
          "type": "bytes32"
        },
        {
          "internalType": "address",
          "name": "callerConfirmation",
          "type": "address"
        }
      ],
      "name": "renounceRole",
      "outputs": [],
      "stateMutability": "nonpayable",
      "type": "function"
    },
    {
      "inputs": [
        {
          "internalType": "bytes32",
          "name": "role",
          "type": "bytes32"
        },
        {
          "internalType": "address",
          "name": "account",
          "type": "address"
        }
      ],
      "name": "revokeRole",
      "outputs": [],
      "stateMutability": "nonpayable",
      "type": "function"
    },
    {
      "inputs": [
        {
          "internalType": "address",
          "name": "from",
          "type": "address"
        },
        {
          "internalType": "address",
          "name": "to",
          "type": "address"
        },
        {
          "internalType": "uint256",
          "name": "tokenId",
          "type": "uint256"
        }
      ],
      "name": "safeTransferFrom",
      "outputs": [],
      "stateMutability": "nonpayable",
      "type": "function"
    },
    {
      "inputs": [
        {
          "internalType": "address",
          "name": "from",
          "type": "address"
        },
        {
          "internalType": "address",
          "name": "to",
          "type": "address"
        },
        {
          "internalType": "uint256",
          "name": "tokenId",
          "type": "uint256"
        },
        {
          "internalType": "bytes",
          "name": "data",
          "type": "bytes"
        }
      ],
      "name": "safeTransferFrom",
      "outputs": [],
      "stateMutability": "nonpayable",
      "type": "function"
    },
    {
      "inputs": [
        {
          "internalType": "address",
          "name": "operator",
          "type": "address"
        },
        {
          "internalType": "bool",
          "name": "approved",
          "type": "bool"
        }
      ],
      "name": "setApprovalForAll",
      "outputs": [],
      "stateMutability": "nonpayable",
      "type": "function"
    },
    {
      "inputs": [
        {
          "internalType": "bytes4",
          "name": "interfaceId",
          "type": "bytes4"
        }
      ],
      "name": "supportsInterface",
      "outputs": [
        {
          "internalType": "bool",
          "name": "",
          "type": "bool"
        }
      ],
      "stateMutability": "view",
      "type": "function"
    },
    {
      "inputs": [],
      "name": "symbol",
      "outputs": [
        {
          "internalType": "string",
          "name": "",
          "type": "string"
        }
      ],
      "stateMutability": "view",
      "type": "function"
    },
    {
      "inputs": [
        {
          "internalType": "uint256",
          "name": "tokenId",
          "type": "uint256"
        }
      ],
      "name": "tokenURI",
      "outputs": [
        {
          "internalType": "string",
          "name": "",
          "type": "string"
        }
      ],
      "stateMutability": "view",
      "type": "function"
    },
    {
      "inputs": [
        {
          "internalType": "address",
          "name": "from",
          "type": "address"
        },
        {
          "internalType": "address",
          "name": "to",
          "type": "address"
        },
        {
          "internalType": "uint256",
          "name": "tokenId",
          "type": "uint256"
        }
      ],
      "name": "transferFrom",
      "outputs": [],
      "stateMutability": "nonpayable",
      "type": "function"
    },
    {
      "inputs": [],
      "name": "unpause",
      "outputs": [],
      "stateMutability": "nonpayable",
      "type": "function"
    },
    {
      "inputs": [
        {
          "internalType": "uint256",
          "name": "tokenId",
          "type": "uint256"
        },
        {
          "internalType": "enum IInvoice.Status",
          "name": "newStatus",
          "type": "uint8"
        }
      ],
      "name": "updateStatus",
      "outputs": [],
      "stateMutability": "nonpayable",
      "type": "function"
    },
    {
      "inputs": [],
      "name": "whitelist",
      "outputs": [
        {
          "internalType": "contract IWhitelist",
          "name": "",
          "type": "address"
        }
      ],
      "stateMutability": "view",
      "type": "function"
    }
  ],
  "bytecode": "0x60a060405234801562000010575f80fd5b506040516200253438038062002534833981016040819052620000339162000268565b84845f620000428382620003c8565b506001620000518282620003c8565b5050506001600160a01b0381166200008b5760405163edddd1b360e01b81526001600160a01b038216600482015260240160405180910390fd5b620000975f33620000fa565b50620000c47f65d7a28e3265b37a6474929f336521b332c1681b933f6cb9f3376673440d862a33620000fa565b50600a620000d38482620003c8565b50600b620000e28382620003c8565b506001600160a01b0316608052506200049092505050565b5f8281526006602090815260408083206001600160a01b038516845290915281205460ff16620001a1575f8381526006602090815260408083206001600160a01b03861684529091529020805460ff19166001179055620001583390565b6001600160a01b0316826001600160a01b0316847f2f8788117e7eff1d82e926ec794901d17c78024a50270940304540a733656f0d60405160405180910390a4506001620001a4565b505f5b92915050565b634e487b7160e01b5f52604160045260245ffd5b5f82601f830112620001ce575f80fd5b81516001600160401b0380821115620001eb57620001eb620001aa565b604051601f8301601f19908116603f01168101908282118183101715620002165762000216620001aa565b8160405283815260209250868385880101111562000232575f80fd5b5f91505b8382101562000255578582018301518183018401529082019062000236565b5f93810190920192909252949350505050565b5f805f805f60a086880312156200027d575f80fd5b85516001600160401b038082111562000294575f80fd5b620002a289838a01620001be565b96506020880151915080821115620002b8575f80fd5b620002c689838a01620001be565b95506040880151915080821115620002dc575f80fd5b620002ea89838a01620001be565b9450606088015191508082111562000300575f80fd5b506200030f88828901620001be565b608088015190935090506001600160a01b03811681146200032e575f80fd5b809150509295509295909350565b600181811c908216806200035157607f821691505b6020821081036200037057634e487b7160e01b5f52602260045260245ffd5b50919050565b601f821115620003c3575f81815260208120601f850160051c810160208610156200039e5750805b601f850160051c820191505b81811015620003bf57828155600101620003aa565b5050505b505050565b81516001600160401b03811115620003e457620003e4620001aa565b620003fc81620003f584546200033c565b8462000376565b602080601f83116001811462000432575f84156200041a5750858301515b5f19600386901b1c1916600185901b178555620003bf565b5f85815260208120601f198616915b82811015620004625788860151825594840194600190910190840162000441565b50858210156200048057878501515f19600388901b60f8161c191681555b5050505050600190811b01905550565b608051612084620004b05f395f81816103760152610e9501526120845ff3fe608060405234801561000f575f80fd5b50600436106101c6575f3560e01c80636352211e116100fe578063a22cb4651161009e578063d53913931161006e578063d5391393146103f3578063d547741f1461041a578063e63ab1e91461042d578063e985e9c514610454575f80fd5b8063a22cb465146103a7578063a86c7b24146103ba578063b88d4fde146103cd578063c87b56dd146103e0575f80fd5b806391d14854116100d957806391d148541461035e57806393e59dc11461037157806395d89b4114610398578063a217fddf146103a0575f80fd5b80636352211e1461033057806370a08231146103435780638456cb5914610356575f80fd5b806336568abe116101695780633f4ba83a116101445780633f4ba83a146102e357806342842e0e146102eb57806347e63380146102fe5780635c975abb14610325575f80fd5b806336568abe1461029d5780633a1b3d31146102b05780633a23cc0a146102c3575f80fd5b8063095ea7b3116101a4578063095ea7b31461023257806323b872dd14610247578063248a9ca31461025a5780632f2ff15d1461028a575f80fd5b806301ffc9a7146101ca57806306fdde03146101f2578063081812fc14610207575b5f80fd5b6101dd6101d8366004611987565b610467565b60405190151581526020015b60405180910390f35b6101fa610477565b6040516101e991906119ef565b61021a610215366004611a01565b610506565b6040516001600160a01b0390911681526020016101e9565b610245610240366004611a33565b61052d565b005b610245610255366004611a5b565b61053c565b61027c610268366004611a01565b5f9081526006602052604090206001015490565b6040519081526020016101e9565b610245610298366004611a94565b6105ca565b6102456102ab366004611a94565b6105ee565b6102456102be366004611abe565b610626565b6102d66102d1366004611a01565b610730565b6040516101e99190611b17565b610245610892565b6102456102f9366004611a5b565b6108c7565b61027c7f73e573f9566d61418a34d5de3ff49360f9c51fec37f7486551670290f6285dab81565b60075460ff166101dd565b61021a61033e366004611a01565b6108e1565b61027c610351366004611b77565b6108eb565b610245610930565b6101dd61036c366004611a94565b610962565b61021a7f000000000000000000000000000000000000000000000000000000000000000081565b6101fa61098c565b61027c5f81565b6102456103b5366004611b9d565b61099b565b61027c6103c8366004611c4e565b6109a6565b6102456103db366004611cd6565b610bca565b6101fa6103ee366004611a01565b610be2565b61027c7f9f2df0fed2c77648de5860a4cc508cd0818c85b8b8a1ab4ceeef8d981c8956a681565b610245610428366004611a94565b610d7d565b61027c7f65d7a28e3265b37a6474929f336521b332c1681b933f6cb9f3376673440d862a81565b6101dd610462366004611d4d565b610da1565b5f61047182610dce565b92915050565b60605f805461048590611d75565b80601f01602080910402602001604051908101604052809291908181526020018280546104b190611d75565b80156104fc5780601f106104d3576101008083540402835291602001916104fc565b820191905f5260205f20905b8154815290600101906020018083116104df57829003601f168201915b5050505050905090565b5f61051082610df2565b505f828152600460205260409020546001600160a01b0316610471565b610538828233610e2a565b5050565b6001600160a01b03821661056a57604051633250574960e11b81525f60048201526024015b60405180910390fd5b5f610576838333610e37565b9050836001600160a01b0316816001600160a01b0316146105c4576040516364283d7b60e01b81526001600160a01b0380861660048301526024820184905282166044820152606401610561565b50505050565b5f828152600660205260409020600101546105e481610f4a565b6105c48383610f54565b6001600160a01b03811633146106175760405163334bd91960e11b815260040160405180910390fd5b6106218282610fe5565b505050565b7f73e573f9566d61418a34d5de3ff49360f9c51fec37f7486551670290f6285dab61065081610f4a565b5f838152600260205260409020546001600160a01b031661068757604051630bc917e760e31b815260048101849052602401610561565b5f838152600960205260409020600381015460ff166106a68185611050565b6106c95784818560405163daa19ee160e01b815260040161056193929190611dad565b60038201805485919060ff191660018360048111156106ea576106ea611aef565b0217905550847fc371b0415465aff17c34272123d75d5aee0e5c80f4e0b07eaef8eb23d37f43848286604051610721929190611dce565b60405180910390a25050505050565b610738611930565b5f828152600260205260409020546001600160a01b031661076f57604051630bc917e760e31b815260048101839052602401610561565b60095f8381526020019081526020015f206040518060c00160405290815f82015481526020016001820154815260200160028201548152602001600382015f9054906101000a900460ff1660048111156107cb576107cb611aef565b60048111156107dc576107dc611aef565b8152600382015461010090046001600160a01b0316602082015260048201805460409092019161080b90611d75565b80601f016020809104026020016040519081016040528092919081815260200182805461083790611d75565b80156108825780601f1061085957610100808354040283529160200191610882565b820191905f5260205f20905b81548152906001019060200180831161086557829003601f168201915b5050505050815250509050919050565b7f65d7a28e3265b37a6474929f336521b332c1681b933f6cb9f3376673440d862a6108bc81610f4a565b6108c4611154565b50565b61062183838360405180602001604052805f815250610bca565b5f61047182610df2565b5f6001600160a01b038216610915576040516322718ad960e21b81525f6004820152602401610561565b506001600160a01b03165f9081526003602052604090205490565b7f65d7a28e3265b37a6474929f336521b332c1681b933f6cb9f3376673440d862a61095a81610f4a565b6108c46111a6565b5f9182526006602090815260408084206001600160a01b0393909316845291905290205460ff1690565b60606001805461048590611d75565b6105383383836111e3565b5f7f9f2df0fed2c77648de5860a4cc508cd0818c85b8b8a1ab4ceeef8d981c8956a66109d181610f4a565b6109d9611281565b6001600160a01b038816610a0b57604051630bc2c5df60e11b81526001600160a01b0389166004820152602401610561565b865f03610a2e57604051633728b83d60e01b815260048101889052602401610561565b428611610a575760405163094793f560e41b815260048101879052426024820152604401610561565b6001600160a01b038416610a8857604051628a35a360e61b81526001600160a01b0385166004820152602401610561565b5f60085f8154610a9790611de9565b91829055506040805160c0810182528a815260208082018b81528284018b81526002606085018181526001600160a01b038d16608087015260a086018c90525f8881526009909552959093208451815591516001808401919091559051928201929092559251600384018054959650929490929160ff1990911690836004811115610b2457610b24611aef565b021790555060808201516003820180546001600160a01b0390921661010002610100600160a81b031990921691909117905560a08201516004820190610b6a9082611e52565b50905050610b7889826112a7565b60408051898152602081018990526001600160a01b0387169183917ff11dc8b28ea57de067e7364519c07234f3413ffa7bf12ecf9d334527c7799d45910160405180910390a398975050505050505050565b610bd584848461053c565b6105c433858585856112c0565b5f818152600260205260409020546060906001600160a01b0316610c1c57604051630bc917e760e31b815260048101839052602401610561565b5f828152600960209081526040808320815160c081018352815481526001820154938101939093526002810154918301919091526003810154606083019060ff166004811115610c6e57610c6e611aef565b6004811115610c7f57610c7f611aef565b8152600382015461010090046001600160a01b03166020820152600482018054604090920191610cae90611d75565b80601f0160208091040260200160405190810160405280929190818152602001828054610cda90611d75565b8015610d255780601f10610cfc57610100808354040283529160200191610d25565b820191905f5260205f20905b815481529060010190602001808311610d0857829003601f168201915b50505050508152505090505f8160a00151511115610d475760a0015192915050565b600a610d52846113e8565b600b604051602001610d6693929190611f7d565b604051602081830303815290604052915050919050565b5f82815260066020526040902060010154610d9781610f4a565b6105c48383610fe5565b6001600160a01b039182165f90815260056020908152604080832093909416825291909152205460ff1690565b5f6001600160e01b03198216637965db0b60e01b1480610471575061047182611478565b5f818152600260205260408120546001600160a01b03168061047157604051637e27328960e01b815260048101849052602401610561565b61062183838360016114c7565b5f610e40611281565b5f838152600260205260408120546001600160a01b031690506001600160a01b03851615801590610e7957506001600160a01b03811615155b15610f3457604051632a3cb9c960e11b81526001600160a01b037f00000000000000000000000000000000000000000000000000000000000000001690635479739290610ecd908890600190600401611faf565b602060405180830381865afa158015610ee8573d5f803e3d5ffd5b505050506040513d601f19601f82011682018060405250810190610f0c9190611fdc565b610f3457604051632ac2e20360e21b81526001600160a01b0386166004820152602401610561565b610f3f8585856115cb565b9150505b9392505050565b6108c481336116bd565b5f610f5f8383610962565b610fde575f8381526006602090815260408083206001600160a01b03861684529091529020805460ff19166001179055610f963390565b6001600160a01b0316826001600160a01b0316847f2f8788117e7eff1d82e926ec794901d17c78024a50270940304540a733656f0d60405160405180910390a4506001610471565b505f610471565b5f610ff08383610962565b15610fde575f8381526006602090815260408083206001600160a01b0386168085529252808320805460ff1916905551339286917ff6391f5c32d9c69d2a47ea670b442974b53935d1edc7fd64eb21e047a839171b9190a4506001610471565b5f8083600481111561106457611064611aef565b1480156110825750600182600481111561108057611080611aef565b145b1561108f57506001610471565b60018360048111156110a3576110a3611aef565b1480156110c1575060028260048111156110bf576110bf611aef565b145b156110ce57506001610471565b60028360048111156110e2576110e2611aef565b148015611100575060038260048111156110fe576110fe611aef565b145b1561110d57506001610471565b600283600481111561112157611121611aef565b14801561113f5750600482600481111561113d5761113d611aef565b145b1561114c57506001610471565b505f92915050565b61115c6116f6565b6007805460ff191690557f5db9ee0a495bf2e6ff9c91a7834c1ba4fdd244a5e8aa4e537bd38aeae4b073aa335b6040516001600160a01b03909116815260200160405180910390a1565b6111ae611281565b6007805460ff191660011790557f62e78cea01bee320cd4e420270b5ea74000d11b0c9f74754ebdbfc544b05a2586111893390565b6001600160a01b03821661121557604051630b61174360e31b81526001600160a01b0383166004820152602401610561565b6001600160a01b038381165f81815260056020908152604080832094871680845294825291829020805460ff191686151590811790915591519182527f17307eab39ab6107e8899845ad3d59bd9653f200f220920489ca2b5937696c31910160405180910390a3505050565b60075460ff16156112a55760405163d93c066560e01b815260040160405180910390fd5b565b610538828260405180602001604052805f815250611719565b6001600160a01b0383163b156113e157604051630a85bd0160e11b81526001600160a01b0384169063150b7a0290611302908890889087908790600401611ff7565b6020604051808303815f875af192505050801561133c575060408051601f3d908101601f1916820190925261133991810190612033565b60015b6113a3573d808015611369576040519150601f19603f3d011682016040523d82523d5f602084013e61136e565b606091505b5080515f0361139b57604051633250574960e11b81526001600160a01b0385166004820152602401610561565b805160208201fd5b6001600160e01b03198116630a85bd0160e11b146113df57604051633250574960e11b81526001600160a01b0385166004820152602401610561565b505b5050505050565b60605f6113f483611730565b60010190505f8167ffffffffffffffff81111561141357611413611bc7565b6040519080825280601f01601f19166020018201604052801561143d576020820181803683370190505b5090508181016020015b5f19016f181899199a1a9b1b9c1cb0b131b232b360811b600a86061a8153600a850494508461144757509392505050565b5f6001600160e01b031982166380ac58cd60e01b14806114a857506001600160e01b03198216635b5e139f60e01b145b8061047157506301ffc9a760e01b6001600160e01b0319831614610471565b80806114db57506001600160a01b03821615155b1561159c575f6114ea84610df2565b90506001600160a01b038316158015906115165750826001600160a01b0316816001600160a01b031614155b801561152957506115278184610da1565b155b156115525760405163a9fbf51f60e01b81526001600160a01b0384166004820152602401610561565b811561159a5783856001600160a01b0316826001600160a01b03167f8c5be1e5ebec7d5bd14f71427d1e84f3dd0314c0f7b2291e5b200ac8c7c3b92560405160405180910390a45b505b50505f90815260046020526040902080546001600160a01b0319166001600160a01b0392909216919091179055565b5f828152600260205260408120546001600160a01b03908116908316156115f7576115f7818486611807565b6001600160a01b03811615611631576116125f855f806114c7565b6001600160a01b0381165f90815260036020526040902080545f190190555b6001600160a01b0385161561165f576001600160a01b0385165f908152600360205260409020805460010190555b5f8481526002602052604080822080546001600160a01b0319166001600160a01b0389811691821790925591518793918516917fddf252ad1be2c89b69c2b068fc378daa952ba7f163c4a11628f55a4df523b3ef91a4949350505050565b6116c78282610962565b6105385760405163e2517d3f60e01b81526001600160a01b038216600482015260248101839052604401610561565b60075460ff166112a557604051638dfc202b60e01b815260040160405180910390fd5b611723838361186b565b610621335f8585856112c0565b5f8072184f03e93ff9f4daa797ed6e38ed64bf6a1f0160401b831061176e5772184f03e93ff9f4daa797ed6e38ed64bf6a1f0160401b830492506040015b6d04ee2d6d415b85acef8100000000831061179a576d04ee2d6d415b85acef8100000000830492506020015b662386f26fc1000083106117b857662386f26fc10000830492506010015b6305f5e10083106117d0576305f5e100830492506008015b61271083106117e457612710830492506004015b606483106117f6576064830492506002015b600a83106104715760010192915050565b6118128383836118cc565b610621576001600160a01b03831661184057604051637e27328960e01b815260048101829052602401610561565b60405163177e802f60e01b81526001600160a01b038316600482015260248101829052604401610561565b6001600160a01b03821661189457604051633250574960e11b81525f6004820152602401610561565b5f6118a083835f610e37565b90506001600160a01b03811615610621576040516339e3563760e11b81525f6004820152602401610561565b5f6001600160a01b038316158015906119285750826001600160a01b0316846001600160a01b0316148061190557506119058484610da1565b8061192857505f828152600460205260409020546001600160a01b038481169116145b949350505050565b6040518060c001604052805f81526020015f81526020015f81526020015f600481111561195f5761195f611aef565b81525f6020820152606060409091015290565b6001600160e01b0319811681146108c4575f80fd5b5f60208284031215611997575f80fd5b8135610f4381611972565b5f5b838110156119bc5781810151838201526020016119a4565b50505f910152565b5f81518084526119db8160208601602086016119a2565b601f01601f19169290920160200192915050565b602081525f610f4360208301846119c4565b5f60208284031215611a11575f80fd5b5035919050565b80356001600160a01b0381168114611a2e575f80fd5b919050565b5f8060408385031215611a44575f80fd5b611a4d83611a18565b946020939093013593505050565b5f805f60608486031215611a6d575f80fd5b611a7684611a18565b9250611a8460208501611a18565b9150604084013590509250925092565b5f8060408385031215611aa5575f80fd5b82359150611ab560208401611a18565b90509250929050565b5f8060408385031215611acf575f80fd5b82359150602083013560058110611ae4575f80fd5b809150509250929050565b634e487b7160e01b5f52602160045260245ffd5b60058110611b1357611b13611aef565b9052565b602081528151602082015260208201516040820152604082015160608201525f6060830151611b496080840182611b03565b5060808301516001600160a01b031660a08381019190915283015160c08084015261192860e08401826119c4565b5f60208284031215611b87575f80fd5b610f4382611a18565b80151581146108c4575f80fd5b5f8060408385031215611bae575f80fd5b611bb783611a18565b91506020830135611ae481611b90565b634e487b7160e01b5f52604160045260245ffd5b5f67ffffffffffffffff80841115611bf557611bf5611bc7565b604051601f8501601f19908116603f01168101908282118183101715611c1d57611c1d611bc7565b81604052809350858152868686011115611c35575f80fd5b858560208301375f602087830101525050509392505050565b5f805f805f8060c08789031215611c63575f80fd5b611c6c87611a18565b9550602087013594506040870135935060608701359250611c8f60808801611a18565b915060a087013567ffffffffffffffff811115611caa575f80fd5b8701601f81018913611cba575f80fd5b611cc989823560208401611bdb565b9150509295509295509295565b5f805f8060808587031215611ce9575f80fd5b611cf285611a18565b9350611d0060208601611a18565b925060408501359150606085013567ffffffffffffffff811115611d22575f80fd5b8501601f81018713611d32575f80fd5b611d4187823560208401611bdb565b91505092959194509250565b5f8060408385031215611d5e575f80fd5b611d6783611a18565b9150611ab560208401611a18565b600181811c90821680611d8957607f821691505b602082108103611da757634e487b7160e01b5f52602260045260245ffd5b50919050565b83815260608101611dc16020830185611b03565b6119286040830184611b03565b60408101611ddc8285611b03565b610f436020830184611b03565b5f60018201611e0657634e487b7160e01b5f52601160045260245ffd5b5060010190565b601f821115610621575f81815260208120601f850160051c81016020861015611e335750805b601f850160051c820191505b818110156113df57828155600101611e3f565b815167ffffffffffffffff811115611e6c57611e6c611bc7565b611e8081611e7a8454611d75565b84611e0d565b602080601f831160018114611eb3575f8415611e9c5750858301515b5f19600386901b1c1916600185901b1785556113df565b5f85815260208120601f198616915b82811015611ee157888601518255948401946001909101908401611ec2565b5085821015611efe57878501515f19600388901b60f8161c191681555b5050505050600190811b01905550565b5f8154611f1a81611d75565b60018281168015611f325760018114611f4757611f73565b60ff1984168752821515830287019450611f73565b855f526020805f205f5b85811015611f6a5781548a820152908401908201611f51565b50505082870194505b5050505092915050565b5f611f888286611f0e565b8451611f988183602089016119a2565b611fa481830186611f0e565b979650505050505050565b6001600160a01b03831681526040810160038310611fcf57611fcf611aef565b8260208301529392505050565b5f60208284031215611fec575f80fd5b8151610f4381611b90565b6001600160a01b03858116825284166020820152604081018390526080606082018190525f90612029908301846119c4565b9695505050505050565b5f60208284031215612043575f80fd5b8151610f438161197256fea26469706673582212200fc1ace0aad91e1e6ad378fdb7224ec0d4da46bb0bf7a351aedfe00eb2d1c76264736f6c63430008140033",
  "linkReferences": {},
  "deployedLinkReferences": {},
  "immutableReferences": {
    "6921": [
      {
        "length": 32,
        "start": 886
      },
      {
        "length": 32,
        "start": 3733
      }
    ]
  },
  "inputSourceName": "project/contracts/Invoice.sol",
  "buildInfoId": "solc-0_8_20-0050d124a42c7e6f55666c115c0705ecd36d1566"
}