{
  "_format": "hh3-artifact-1",
  "contractName": "Whitelist",
  "sourceName": "contracts/Whitelist.sol",
  "abi": [
    {
      "inputs": [],
      "stateMutability": "nonpayable",
      "type": "constructor"
    },
    {
      "inputs": [],
      "name": "AccessControlBadConfirmation",
      "type": "error"
    },
    {
      "inputs": [
        {
          "internalType": "address",
          "name": "account",
          "type": "address"
        },
        {
          "internalType": "bytes32",
          "name": "neededRole",
          "type": "bytes32"
        }
      ],
      "name": "AccessControlUnauthorizedAccount",
      "type": "error"
    },
    {
      "inputs": [
        {
          "internalType": "address",
          "name": "account",
          "type": "address"
        }
      ],
      "name": "AddressNotWhitelisted",
      "type": "error"
    },
    {
      "inputs": [
        {
          "internalType": "address",
          "name": "account",
          "type": "address"
        }
      ],
      "name": "InvalidAddress",
      "type": "error"
    },
    {
      "inputs": [
        {
          "internalType": "enum IWhitelist.Role",
          "name": "role",
          "type": "uint8"
        }
      ],
      "name": "InvalidRole",
      "type": "error"
    },
    {
      "anonymous": false,
      "inputs": [
        {
          "indexed": true,
          "internalType": "address",
          "name": "account",
          "type": "address"
        },
        {
          "indexed": true,
          "internalType": "address",
          "name": "manager",
          "type": "address"
        }
      ],
      "name": "AddressRemoved",
      "type": "event"
    },
    {
      "anonymous": false,
      "inputs": [
        {
          "indexed": true,
          "internalType": "address",
          "name": "account",
          "type": "address"
        },
        {
          "indexed": false,
          "internalType": "enum IWhitelist.Role",
          "name": "role",
          "type": "uint8"
        },
        {
          "indexed": true,
          "internalType": "address",
          "name": "manager",
          "type": "address"
        }
      ],
      "name": "AddressWhitelisted",
      "type": "event"
    },
    {
      "anonymous": false,
      "inputs": [
        {
          "indexed": true,
          "internalType": "bytes32",
          "name": "role",
          "type": "bytes32"
        },
        {
          "indexed": true,
          "internalType": "bytes32",
          "name": "previousAdminRole",
          "type": "bytes32"
        },
        {
          "indexed": true,
          "internalType": "bytes32",
          "name": "newAdminRole",
          "type": "bytes32"
        }
      ],
      "name": "RoleAdminChanged",
      "type": "event"
    },
    {
      "anonymous": false,
      "inputs": [
        {
          "indexed": true,
          "internalType": "bytes32",
          "name": "role",
          "type": "bytes32"
        },
        {
          "indexed": true,
          "internalType": "address",
          "name": "account",
          "type": "address"
        },
        {
          "indexed": true,
          "internalType": "address",
          "name": "sender",
          "type": "address"
        }
      ],
      "name": "RoleGranted",
      "type": "event"
    },
    {
      "anonymous": false,
      "inputs": [
        {
          "indexed": true,
          "internalType": "bytes32",
          "name": "role",
          "type": "bytes32"
        },
        {
          "indexed": true,
          "internalType": "address",
          "name": "account",
          "type": "address"
        },
        {
          "indexed": true,
          "internalType": "address",
          "name": "sender",
          "type": "address"
        }
      ],
      "name": "RoleRevoked",
      "type": "event"
    },
    {
      "inputs": [],
      "name": "DEFAULT_ADMIN_ROLE",
      "outputs": [
        {
          "internalType": "bytes32",
          "name": "",
          "type": "bytes32"
        }
      ],
      "stateMutability": "view",
      "type": "function"
    },
    {
      "inputs": [],
      "name": "WHITELIST_MANAGER_ROLE",
      "outputs": [
        {
          "internalType": "bytes32",
          "name": "",
          "type": "bytes32"
        }
      ],
      "stateMutability": "view",
      "type": "function"
    },
    {
      "inputs": [
        {
          "internalType": "address",
          "name": "account",
          "type": "address"
        },
        {
          "internalType": "enum IWhitelist.Role",
          "name": "role",
          "type": "uint8"
        }
      ],
      "name": "addToWhitelist",
      "outputs": [],
      "stateMutability": "nonpayable",
      "type": "function"
    },
    {
      "inputs": [
        {
          "internalType": "address",
          "name": "account",
          "type": "address"
        }
      ],
      "name": "getRole",
      "outputs": [
        {
          "internalType": "enum IWhitelist.Role",
          "name": "",
          "type": "uint8"
        }
      ],
      "stateMutability": "view",
      "type": "function"
    },
    {
      "inputs": [
        {
          "internalType": "bytes32",
          "name": "role",
          "type": "bytes32"
        }
      ],
      "name": "getRoleAdmin",
      "outputs": [
        {
          "internalType": "bytes32",
          "name": "",
          "type": "bytes32"
        }
      ],
      "stateMutability": "view",
      "type": "function"
    },
    {
      "inputs": [
        {
          "internalType": "bytes32",
          "name": "role",
          "type": "bytes32"
        },
        {
          "internalType": "address",
          "name": "account",
          "type": "address"
        }
      ],
      "name": "grantRole",
      "outputs": [],
      "stateMutability": "nonpayable",
      "type": "function"
    },
    {
      "inputs": [
        {
          "internalType": "bytes32",
          "name": "role",
          "type": "bytes32"
        },
        {
          "internalType": "address",
          "name": "account",
          "type": "address"
        }
      ],
      "name": "hasRole",
      "outputs": [
        {
          "internalType": "bool",
          "name": "",
          "type": "bool"
        }
      ],
      "stateMutability": "view",
      "type": "function"
    },
    {
      "inputs": [
        {
          "internalType": "address",
          "name": "account",
          "type": "address"
        },
        {
          "internalType": "enum IWhitelist.Role",
          "name": "role",
          "type": "uint8"
        }
      ],
      "name": "isWhitelisted",
      "outputs": [
        {
          "internalType": "bool",
          "name": "",
          "type": "bool"
        }
      ],
      "stateMutability": "view",
      "type": "function"
    },
    {
      "inputs": [
        {
          "internalType": "address",
          "name": "account",
          "type": "address"
        }
      ],
      "name": "removeFromWhitelist",
      "outputs": [],
      "stateMutability": "nonpayable",
      "type": "function"
    },
    {
      "inputs": [
        {
          "internalType": "bytes32",
          "name": "role",
          "type": "bytes32"
        },
        {
          "internalType": "address",
          "name": "callerConfirmation",
          "type": "address"
        }
      ],
      "name": "renounceRole",
      "outputs": [],
      "stateMutability": "nonpayable",
      "type": "function"
    },
    {
      "inputs": [
        {
          "internalType": "bytes32",
          "name": "role",
          "type": "bytes32"
        },
        {
          "internalType": "address",
          "name": "account",
          "type": "address"
        }
      ],
      "name": "revokeRole",
      "outputs": [],
      "stateMutability": "nonpayable",
      "type": "function"
    },
    {
      "inputs": [
        {
          "internalType": "bytes4",
          "name": "interfaceId",
          "type": "bytes4"
        }
      ],
      "name": "supportsInterface",
      "outputs": [
        {
          "internalType": "bool",
          "name": "",
          "type": "bool"
        }
      ],
      "stateMutability": "view",
      "type": "function"
    }
  ],
  "bytecode": "0x608060405234801561000f575f80fd5b5061001a5f3361004b565b506100457f2a3dab589bcc9747970dd85ac3f222668741ae51f2a1bbb8f8355be28dd8a8683361004b565b506100f4565b5f828152602081815260408083206001600160a01b038516845290915281205460ff166100eb575f838152602081815260408083206001600160a01b03861684529091529020805460ff191660011790556100a33390565b6001600160a01b0316826001600160a01b0316847f2f8788117e7eff1d82e926ec794901d17c78024a50270940304540a733656f0d60405160405180910390a45060016100ee565b505f5b92915050565b6107ce806101015f395ff3fe608060405234801561000f575f80fd5b50600436106100b1575f3560e01c8063547973921161006e57806354797392146101805780637295ed93146101935780638ab1d681146101ba57806391d14854146101cd578063a217fddf146101e0578063d547741f146101e7575f80fd5b806301ffc9a7146100b55780630263b858146100dd578063248a9ca3146100f25780632f2ff15d1461012257806336568abe146101355780634427673314610148575b5f80fd5b6100c86100c3366004610683565b6101fa565b60405190151581526020015b60405180910390f35b6100f06100eb3660046106cc565b610230565b005b610114610100366004610704565b5f9081526020819052604090206001015490565b6040519081526020016100d4565b6100f061013036600461071b565b610350565b6100f061014336600461071b565b61037a565b610173610156366004610745565b6001600160a01b03165f9081526001602052604090205460ff1690565b6040516100d49190610772565b6100c861018e3660046106cc565b6103b2565b6101147f2a3dab589bcc9747970dd85ac3f222668741ae51f2a1bbb8f8355be28dd8a86881565b6100f06101c8366004610745565b6103f9565b6100c86101db36600461071b565b6104f5565b6101145f81565b6100f06101f536600461071b565b61051d565b5f6001600160e01b03198216637965db0b60e01b148061022a57506301ffc9a760e01b6001600160e01b03198316145b92915050565b7f2a3dab589bcc9747970dd85ac3f222668741ae51f2a1bbb8f8355be28dd8a86861025a81610541565b6001600160a01b03831661029157604051634726455360e11b81526001600160a01b03841660048201526024015b60405180910390fd5b5f8260028111156102a4576102a461075e565b036102c457816040516378bc326f60e11b81526004016102889190610772565b6001600160a01b0383165f9081526001602081905260409091208054849260ff19909116908360028111156102fb576102fb61075e565b0217905550336001600160a01b0316836001600160a01b03167ff08c03603f19445774bc486b5633492e861b45f62fd19620aa59d2bfe8e89634846040516103439190610772565b60405180910390a3505050565b5f8281526020819052604090206001015461036a81610541565b610374838361054e565b50505050565b6001600160a01b03811633146103a35760405163334bd91960e11b815260040160405180910390fd5b6103ad82826105dd565b505050565b5f8160028111156103c5576103c561075e565b6001600160a01b0384165f9081526001602052604090205460ff1660028111156103f1576103f161075e565b149392505050565b7f2a3dab589bcc9747970dd85ac3f222668741ae51f2a1bbb8f8355be28dd8a86861042381610541565b6001600160a01b03821661045557604051634726455360e11b81526001600160a01b0383166004820152602401610288565b6001600160a01b0382165f9081526001602052604081205460ff1660028111156104815761048161075e565b036104aa5760405163eadb950f60e01b81526001600160a01b0383166004820152602401610288565b6001600160a01b0382165f81815260016020526040808220805460ff19169055513392917f14c03038f91513ea128893e8d0865b80359ca07b96f819269baebe06732bb4ad91a35050565b5f918252602082815260408084206001600160a01b0393909316845291905290205460ff1690565b5f8281526020819052604090206001015461053781610541565b61037483836105dd565b61054b8133610646565b50565b5f61055983836104f5565b6105d6575f838152602081815260408083206001600160a01b03861684529091529020805460ff1916600117905561058e3390565b6001600160a01b0316826001600160a01b0316847f2f8788117e7eff1d82e926ec794901d17c78024a50270940304540a733656f0d60405160405180910390a450600161022a565b505f61022a565b5f6105e883836104f5565b156105d6575f838152602081815260408083206001600160a01b0386168085529252808320805460ff1916905551339286917ff6391f5c32d9c69d2a47ea670b442974b53935d1edc7fd64eb21e047a839171b9190a450600161022a565b61065082826104f5565b61067f5760405163e2517d3f60e01b81526001600160a01b038216600482015260248101839052604401610288565b5050565b5f60208284031215610693575f80fd5b81356001600160e01b0319811681146106aa575f80fd5b9392505050565b80356001600160a01b03811681146106c7575f80fd5b919050565b5f80604083850312156106dd575f80fd5b6106e6836106b1565b91506020830135600381106106f9575f80fd5b809150509250929050565b5f60208284031215610714575f80fd5b5035919050565b5f806040838503121561072c575f80fd5b8235915061073c602084016106b1565b90509250929050565b5f60208284031215610755575f80fd5b6106aa826106b1565b634e487b7160e01b5f52602160045260245ffd5b602081016003831061079257634e487b7160e01b5f52602160045260245ffd5b9190529056fea26469706673582212205a74c094c40ff6d84c9e7a9d84e9b6bb600356b6f9568197b84ee28fb96c106b64736f6c63430008140033",
  "linkReferences": {},
  "deployedLinkReferences": {},
  "immutableReferences": {},
  "inputSourceName": "project/contracts/Whitelist.sol",
  "buildInfoId": "solc-0_8_20-1ce60320fd43e1584be1faaf0da21c78159e98b3"
}