{
  "_format": "hh3-artifact-1",
  "contractName": "InvoiceFundingPool",
  "sourceName": "contracts/InvoiceFundingPool.sol",
  "abi": [
    {
      "inputs": [
        {
          "internalType": "address",
          "name": "paymentToken_",
          "type": "address"
        },
        {
          "internalType": "address",
          "name": "invoice_",
          "type": "address"
        },
        {
          "internalType": "uint256",
          "name": "gracePeriodDays_",
          "type": "uint256"
        },
        {
          "internalType": "address",
          "name": "whitelist_",
          "type": "address"
        }
      ],
      "stateMutability": "nonpayable",
      "type": "constructor"
    },
    {
      "inputs": [],
      "name": "AccessControlBadConfirmation",
      "type": "error"
    },
    {
      "inputs": [
        {
          "internalType": "address",
          "name": "account",
          "type": "address"
        },
        {
          "internalType": "bytes32",
          "name": "neededRole",
          "type": "bytes32"
        }
      ],
      "name": "AccessControlUnauthorizedAccount",
      "type": "error"
    },
    {
      "inputs": [],
      "name": "EnforcedPause",
      "type": "error"
    },
    {
      "inputs": [],
      "name": "ExpectedPause",
      "type": "error"
    },
    {
      "inputs": [
        {
          "internalType": "uint256",
          "name": "tokenId",
          "type": "uint256"
        },
        {
          "internalType": "uint256",
          "name": "gracePeriodEnd",
          "type": "uint256"
        },
        {
          "internalType": "uint256",
          "name": "currentTime",
          "type": "uint256"
        }
      ],
      "name": "GracePeriodNotElapsed",
      "type": "error"
    },
    {
      "inputs": [
        {
          "internalType": "uint256",
          "name": "amount",
          "type": "uint256"
        }
      ],
      "name": "InvalidAmount",
      "type": "error"
    },
    {
      "inputs": [
        {
          "internalType": "uint256",
          "name": "dueDate",
          "type": "uint256"
        },
        {
          "internalType": "uint256",
          "name": "currentTime",
          "type": "uint256"
        }
      ],
      "name": "InvalidDueDate",
      "type": "error"
    },
    {
      "inputs": [
        {
          "internalType": "uint256",
          "name": "gracePeriod",
          "type": "uint256"
        }
      ],
      "name": "InvalidGracePeriod",
      "type": "error"
    },
    {
      "inputs": [
        {
          "internalType": "address",
          "name": "invoice",
          "type": "address"
        }
      ],
      "name": "InvalidInvoiceAddress",
      "type": "error"
    },
    {
      "inputs": [
        {
          "internalType": "address",
          "name": "issuer",
          "type": "address"
        }
      ],
      "name": "InvalidIssuer",
      "type": "error"
    },
    {
      "inputs": [
        {
          "internalType": "address",
          "name": "paymentToken",
          "type": "address"
        }
      ],
      "name": "InvalidPaymentTokenAddress",
      "type": "error"
    },
    {
      "inputs": [
        {
          "internalType": "address",
          "name": "whitelist",
          "type": "address"
        }
      ],
      "name": "InvalidWhitelistAddress",
      "type": "error"
    },
    {
      "inputs": [
        {
          "internalType": "address",
          "name": "investor",
          "type": "address"
        }
      ],
      "name": "InvestorNotWhitelisted",
      "type": "error"
    },
    {
      "inputs": [
        {
          "internalType": "uint256",
          "name": "tokenId",
          "type": "uint256"
        },
        {
          "internalType": "uint8",
          "name": "currentStatus",
          "type": "uint8"
        }
      ],
      "name": "InvoiceNotFunded",
      "type": "error"
    },
    {
      "inputs": [
        {
          "internalType": "address",
          "name": "issuer",
          "type": "address"
        }
      ],
      "name": "IssuerNotWhitelisted",
      "type": "error"
    },
    {
      "inputs": [
        {
          "internalType": "uint256",
          "name": "tokenId",
          "type": "uint256"
        }
      ],
      "name": "NoRepaymentDeposited",
      "type": "error"
    },
    {
      "inputs": [],
      "name": "ReentrancyGuardReentrantCall",
      "type": "error"
    },
    {
      "inputs": [
        {
          "internalType": "uint256",
          "name": "tokenId",
          "type": "uint256"
        }
      ],
      "name": "RepaymentAlreadyDeposited",
      "type": "error"
    },
    {
      "inputs": [
        {
          "internalType": "address",
          "name": "token",
          "type": "address"
        }
      ],
      "name": "SafeERC20FailedOperation",
      "type": "error"
    },
    {
      "anonymous": false,
      "inputs": [
        {
          "indexed": true,
          "internalType": "uint256",
          "name": "tokenId",
          "type": "uint256"
        },
        {
          "indexed": true,
          "internalType": "address",
          "name": "investor",
          "type": "address"
        },
        {
          "indexed": false,
          "internalType": "uint256",
          "name": "principal",
          "type": "uint256"
        }
      ],
      "name": "InvoiceDefaulted",
      "type": "event"
    },
    {
      "anonymous": false,
      "inputs": [
        {
          "indexed": true,
          "internalType": "uint256",
          "name": "tokenId",
          "type": "uint256"
        },
        {
          "indexed": true,
          "internalType": "address",
          "name": "investor",
          "type": "address"
        },
        {
          "indexed": false,
          "internalType": "uint256",
          "name": "amount",
          "type": "uint256"
        }
      ],
      "name": "InvoiceFunded",
      "type": "event"
    },
    {
      "anonymous": false,
      "inputs": [
        {
          "indexed": true,
          "internalType": "uint256",
          "name": "tokenId",
          "type": "uint256"
        },
        {
          "indexed": true,
          "internalType": "address",
          "name": "investor",
          "type": "address"
        },
        {
          "indexed": false,
          "internalType": "uint256",
          "name": "totalAmount",
          "type": "uint256"
        }
      ],
      "name": "InvoiceRepaid",
      "type": "event"
    },
    {
      "anonymous": false,
      "inputs": [
        {
          "indexed": false,
          "internalType": "address",
          "name": "account",
          "type": "address"
        }
      ],
      "name": "Paused",
      "type": "event"
    },
    {
      "anonymous": false,
      "inputs": [
        {
          "indexed": true,
          "internalType": "uint256",
          "name": "tokenId",
          "type": "uint256"
        },
        {
          "indexed": true,
          "internalType": "address",
          "name": "depositor",
          "type": "address"
        },
        {
          "indexed": false,
          "internalType": "uint256",
          "name": "amount",
          "type": "uint256"
        }
      ],
      "name": "RepaymentDeposited",
      "type": "event"
    },
    {
      "anonymous": false,
      "inputs": [
        {
          "indexed": true,
          "internalType": "bytes32",
          "name": "role",
          "type": "bytes32"
        },
        {
          "indexed": true,
          "internalType": "bytes32",
          "name": "previousAdminRole",
          "type": "bytes32"
        },
        {
          "indexed": true,
          "internalType": "bytes32",
          "name": "newAdminRole",
          "type": "bytes32"
        }
      ],
      "name": "RoleAdminChanged",
      "type": "event"
    },
    {
      "anonymous": false,
      "inputs": [
        {
          "indexed": true,
          "internalType": "bytes32",
          "name": "role",
          "type": "bytes32"
        },
        {
          "indexed": true,
          "internalType": "address",
          "name": "account",
          "type": "address"
        },
        {
          "indexed": true,
          "internalType": "address",
          "name": "sender",
          "type": "address"
        }
      ],
      "name": "RoleGranted",
      "type": "event"
    },
    {
      "anonymous": false,
      "inputs": [
        {
          "indexed": true,
          "internalType": "bytes32",
          "name": "role",
          "type": "bytes32"
        },
        {
          "indexed": true,
          "internalType": "address",
          "name": "account",
          "type": "address"
        },
        {
          "indexed": true,
          "internalType": "address",
          "name": "sender",
          "type": "address"
        }
      ],
      "name": "RoleRevoked",
      "type": "event"
    },
    {
      "anonymous": false,
      "inputs": [
        {
          "indexed": false,
          "internalType": "address",
          "name": "account",
          "type": "address"
        }
      ],
      "name": "Unpaused",
      "type": "event"
    },
    {
      "inputs": [],
      "name": "DEFAULT_ADMIN_ROLE",
      "outputs": [
        {
          "internalType": "bytes32",
          "name": "",
          "type": "bytes32"
        }
      ],
      "stateMutability": "view",
      "type": "function"
    },
    {
      "inputs": [],
      "name": "GRACE_PERIOD_DAYS",
      "outputs": [
        {
          "internalType": "uint256",
          "name": "",
          "type": "uint256"
        }
      ],
      "stateMutability": "view",
      "type": "function"
    },
    {
      "inputs": [],
      "name": "OPERATOR_ROLE",
      "outputs": [
        {
          "internalType": "bytes32",
          "name": "",
          "type": "bytes32"
        }
      ],
      "stateMutability": "view",
      "type": "function"
    },
    {
      "inputs": [],
      "name": "PAUSER_ROLE",
      "outputs": [
        {
          "internalType": "bytes32",
          "name": "",
          "type": "bytes32"
        }
      ],
      "stateMutability": "view",
      "type": "function"
    },
    {
      "inputs": [
        {
          "internalType": "uint256",
          "name": "principal",
          "type": "uint256"
        },
        {
          "internalType": "uint256",
          "name": "apy",
          "type": "uint256"
        },
        {
          "internalType": "uint256",
          "name": "dueDate",
          "type": "uint256"
        },
        {
          "internalType": "uint256",
          "name": "fundingTimestamp",
          "type": "uint256"
        }
      ],
      "name": "calculateYield",
      "outputs": [
        {
          "internalType": "uint256",
          "name": "",
          "type": "uint256"
        }
      ],
      "stateMutability": "pure",
      "type": "function"
    },
    {
      "inputs": [
        {
          "internalType": "uint256",
          "name": "tokenId",
          "type": "uint256"
        }
      ],
      "name": "depositRepayment",
      "outputs": [],
      "stateMutability": "nonpayable",
      "type": "function"
    },
    {
      "inputs": [
        {
          "internalType": "uint256",
          "name": "amount",
          "type": "uint256"
        },
        {
          "internalType": "uint256",
          "name": "dueDate",
          "type": "uint256"
        },
        {
          "internalType": "uint256",
          "name": "apy",
          "type": "uint256"
        },
        {
          "internalType": "address",
          "name": "issuer",
          "type": "address"
        },
        {
          "internalType": "string",
          "name": "metadataURI",
          "type": "string"
        }
      ],
      "name": "fundInvoice",
      "outputs": [
        {
          "internalType": "uint256",
          "name": "",
          "type": "uint256"
        }
      ],
      "stateMutability": "nonpayable",
      "type": "function"
    },
    {
      "inputs": [
        {
          "internalType": "uint256",
          "name": "",
          "type": "uint256"
        }
      ],
      "name": "fundedAmounts",
      "outputs": [
        {
          "internalType": "uint256",
          "name": "",
          "type": "uint256"
        }
      ],
      "stateMutability": "view",
      "type": "function"
    },
    {
      "inputs": [
        {
          "internalType": "uint256",
          "name": "",
          "type": "uint256"
        }
      ],
      "name": "fundingTimestamps",
      "outputs": [
        {
          "internalType": "uint256",
          "name": "",
          "type": "uint256"
        }
      ],
      "stateMutability": "view",
      "type": "function"
    },
    {
      "inputs": [
        {
          "internalType": "uint256",
          "name": "tokenId",
          "type": "uint256"
        }
      ],
      "name": "getFundingInfo",
      "outputs": [
        {
          "internalType": "address",
          "name": "investor",
          "type": "address"
        },
        {
          "internalType": "uint256",
          "name": "principal",
          "type": "uint256"
        },
        {
          "internalType": "uint256",
          "name": "repaymentAmount",
          "type": "uint256"
        },
        {
          "internalType": "uint256",
          "name": "fundingTime",
          "type": "uint256"
        }
      ],
      "stateMutability": "view",
      "type": "function"
    },
    {
      "inputs": [
        {
          "internalType": "bytes32",
          "name": "role",
          "type": "bytes32"
        }
      ],
      "name": "getRoleAdmin",
      "outputs": [
        {
          "internalType": "bytes32",
          "name": "",
          "type": "bytes32"
        }
      ],
      "stateMutability": "view",
      "type": "function"
    },
    {
      "inputs": [
        {
          "internalType": "bytes32",
          "name": "role",
          "type": "bytes32"
        },
        {
          "internalType": "address",
          "name": "account",
          "type": "address"
        }
      ],
      "name": "grantRole",
      "outputs": [],
      "stateMutability": "nonpayable",
      "type": "function"
    },
    {
      "inputs": [
        {
          "internalType": "bytes32",
          "name": "role",
          "type": "bytes32"
        },
        {
          "internalType": "address",
          "name": "account",
          "type": "address"
        }
      ],
      "name": "hasRole",
      "outputs": [
        {
          "internalType": "bool",
          "name": "",
          "type": "bool"
        }
      ],
      "stateMutability": "view",
      "type": "function"
    },
    {
      "inputs": [],
      "name": "invoice",
      "outputs": [
        {
          "internalType": "contract Invoice",
          "name": "",
          "type": "address"
        }
      ],
      "stateMutability": "view",
      "type": "function"
    },
    {
      "inputs": [
        {
          "internalType": "uint256",
          "name": "",
          "type": "uint256"
        }
      ],
      "name": "invoiceInvestor",
      "outputs": [
        {
          "internalType": "address",
          "name": "",
          "type": "address"
        }
      ],
      "stateMutability": "view",
      "type": "function"
    },
    {
      "inputs": [
        {
          "internalType": "uint256",
          "name": "tokenId",
          "type": "uint256"
        }
      ],
      "name": "isOverdue",
      "outputs": [
        {
          "internalType": "bool",
          "name": "",
          "type": "bool"
        }
      ],
      "stateMutability": "view",
      "type": "function"
    },
    {
      "inputs": [
        {
          "internalType": "uint256",
          "name": "tokenId",
          "type": "uint256"
        }
      ],
      "name": "markDefaulted",
      "outputs": [],
      "stateMutability": "nonpayable",
      "type": "function"
    },
    {
      "inputs": [],
      "name": "pause",
      "outputs": [],
      "stateMutability": "nonpayable",
      "type": "function"
    },
    {
      "inputs": [],
      "name": "paused",
      "outputs": [
        {
          "internalType": "bool",
          "name": "",
          "type": "bool"
        }
      ],
      "stateMutability": "view",
      "type": "function"
    },
    {
      "inputs": [],
      "name": "paymentToken",
      "outputs": [
        {
          "internalType": "contract IERC20",
          "name": "",
          "type": "address"
        }
      ],
      "stateMutability": "view",
      "type": "function"
    },
    {
      "inputs": [
        {
          "internalType": "bytes32",
          "name": "role",
          "type": "bytes32"
        },
        {
          "internalType": "address",
          "name": "callerConfirmation",
          "type": "address"
        }
      ],
      "name": "renounceRole",
      "outputs": [],
      "stateMutability": "nonpayable",
      "type": "function"
    },
    {
      "inputs": [
        {
          "internalType": "uint256",
          "name": "",
          "type": "uint256"
        }
      ],
      "name": "repaymentPool",
      "outputs": [
        {
          "internalType": "uint256",
          "name": "",
          "type": "uint256"
        }
      ],
      "stateMutability": "view",
      "type": "function"
    },
    {
      "inputs": [
        {
          "internalType": "bytes32",
          "name": "role",
          "type": "bytes32"
        },
        {
          "internalType": "address",
          "name": "account",
          "type": "address"
        }
      ],
      "name": "revokeRole",
      "outputs": [],
      "stateMutability": "nonpayable",
      "type": "function"
    },
    {
      "inputs": [
        {
          "internalType": "uint256",
          "name": "tokenId",
          "type": "uint256"
        }
      ],
      "name": "settleRepayment",
      "outputs": [],
      "stateMutability": "nonpayable",
      "type": "function"
    },
    {
      "inputs": [
        {
          "internalType": "bytes4",
          "name": "interfaceId",
          "type": "bytes4"
        }
      ],
      "name": "supportsInterface",
      "outputs": [
        {
          "internalType": "bool",
          "name": "",
          "type": "bool"
        }
      ],
      "stateMutability": "view",
      "type": "function"
    },
    {
      "inputs": [],
      "name": "unpause",
      "outputs": [],
      "stateMutability": "nonpayable",
      "type": "function"
    },
    {
      "inputs": [],
      "name": "whitelist",
      "outputs": [
        {
          "internalType": "contract IWhitelist",
          "name": "",
          "type": "address"
        }
      ],
      "stateMutability": "view",
      "type": "function"
    }
  ],
  "bytecode": "0x61010060405234801562000011575f80fd5b5060405162001be038038062001be0833981016040819052620000349162000254565b600180556001600160a01b038416620000705760405163d0e6a63d60e01b81526001600160a01b03851660048201526024015b60405180910390fd5b6001600160a01b038316620000a457604051634cc628c560e11b81526001600160a01b038416600482015260240162000067565b815f03620000c9576040516361c42a4760e11b81526004810183905260240162000067565b6001600160a01b038116620000fd5760405163edddd1b360e01b81526001600160a01b038216600482015260240162000067565b6001600160a01b0380851660805283811660a052811660c05260e0829052620001275f336200018c565b50620001547f97667070c54ef182b0f5858b034beac1b6f3089aa2d3188bb1e8929f4fa9b929336200018c565b50620001817f65d7a28e3265b37a6474929f336521b332c1681b933f6cb9f3376673440d862a336200018c565b5050505050620002a5565b5f828152602081815260408083206001600160a01b038516845290915281205460ff166200022f575f838152602081815260408083206001600160a01b03861684529091529020805460ff19166001179055620001e63390565b6001600160a01b0316826001600160a01b0316847f2f8788117e7eff1d82e926ec794901d17c78024a50270940304540a733656f0d60405160405180910390a450600162000232565b505f5b92915050565b80516001600160a01b03811681146200024f575f80fd5b919050565b5f805f806080858703121562000268575f80fd5b620002738562000238565b9350620002836020860162000238565b9250604085015191506200029a6060860162000238565b905092959194509250565b60805160a05160c05160e0516118ac620003345f395f81816103cb01528181610c1d0152610ea701525f818161030a0152818161084801526108f501525f81816102d001528181610538015281816109e201528181610b6e01528181610ccc01528181610e0f015261100a01525f818161022a01528181610688015281816109a10152610fbc01526118ac5ff3fe608060405234801561000f575f80fd5b50600436106101a1575f3560e01c806391d14854116100f3578063d547741f11610093578063eb73fc321161006e578063eb73fc3214610459578063f5b541a61461046c578063f6464fbf14610493578063fc9424d1146104bb575f80fd5b8063d547741f14610400578063e312dbd014610413578063e63ab1e914610432575f80fd5b8063b1fa2f5c116100ce578063b1fa2f5c14610333578063c832b0be14610352578063ccfae201146103c6578063d22a0d0f146103ed575f80fd5b806391d14854146102f257806393e59dc114610305578063a217fddf1461032c575f80fd5b80633f4ba83a1161015e5780635c975abb116101395780635c975abb146102a557806373216450146102b05780638456cb59146102c3578063895ae279146102cb575f80fd5b80633f4ba83a14610277578063498bf39e1461027f5780634b18fd7c14610292575f80fd5b806301ffc9a7146101a557806306516f5e146101cd578063248a9ca3146101e25780632f2ff15d146102125780633013ce291461022557806336568abe14610264575b5f80fd5b6101b86101b3366004611403565b6104da565b60405190151581526020015b60405180910390f35b6101e06101db366004611431565b610510565b005b6102046101f0366004611431565b5f9081526020819052604090206001015490565b6040519081526020016101c4565b6101e061022036600461145c565b61070f565b61024c7f000000000000000000000000000000000000000000000000000000000000000081565b6040516001600160a01b0390911681526020016101c4565b6101e061027236600461145c565b610739565b6101e0610771565b61020461028d36600461151f565b6107a3565b6102046102a03660046115c7565b610ae3565b60025460ff166101b8565b6101e06102be366004611431565b610b2c565b6101e0610d93565b61024c7f000000000000000000000000000000000000000000000000000000000000000081565b6101b861030036600461145c565b610dc5565b61024c7f000000000000000000000000000000000000000000000000000000000000000081565b6102045f81565b610204610341366004611431565b60066020525f908152604090205481565b61039c610360366004611431565b5f9081526003602090815260408083205460048352818420546005845282852054600690945291909320546001600160a01b0390931693909290565b604080516001600160a01b03909516855260208501939093529183015260608201526080016101c4565b6102047f000000000000000000000000000000000000000000000000000000000000000081565b6101b86103fb366004611431565b610ded565b6101e061040e36600461145c565b610f02565b610204610421366004611431565b60056020525f908152604090205481565b6102047f65d7a28e3265b37a6474929f336521b332c1681b933f6cb9f3376673440d862a81565b6101e0610467366004611431565b610f26565b6102047f97667070c54ef182b0f5858b034beac1b6f3089aa2d3188bb1e8929f4fa9b92981565b61024c6104a1366004611431565b60036020525f90815260409020546001600160a01b031681565b6102046104c9366004611431565b60046020525f908152604090205481565b5f6001600160e01b03198216637965db0b60e01b148061050a57506301ffc9a760e01b6001600160e01b03198316145b92915050565b6105186110c2565b6105206110ec565b604051631d11e60560e11b8152600481018290525f907f00000000000000000000000000000000000000000000000000000000000000006001600160a01b031690633a23cc0a906024015f60405180830381865afa158015610584573d5f803e3d5ffd5b505050506040513d5f823e601f3d908101601f191682016040526105ab919081019061166a565b90506002816060015160048111156105c5576105c5611717565b1461060b5781816060015160048111156105e1576105e1611717565b60405163386a832b60e11b8152600481019290925260ff1660248201526044015b60405180910390fd5b5f828152600560205260409020541561063a5760405163046a2cf160e21b815260048101839052602401610602565b5f82815260046020908152604080832054600683528184205491850151928501519093919261066c9185919085610ae3565b90505f610679828561173f565b90506106b06001600160a01b037f000000000000000000000000000000000000000000000000000000000000000016333084611112565b5f868152600560205260409081902082905551339087907f975a1e788118154fa46c9a66cd40aa6b085d529b4fffb2d4c0f1ff08c9d328f6906106f69085815260200190565b60405180910390a3505050505061070c60018055565b50565b5f8281526020819052604090206001015461072981611179565b6107338383611183565b50505050565b6001600160a01b03811633146107625760405163334bd91960e11b815260040160405180910390fd5b61076c8282611212565b505050565b7f65d7a28e3265b37a6474929f336521b332c1681b933f6cb9f3376673440d862a61079b81611179565b61070c61127b565b5f6107ac6110c2565b6107b46110ec565b855f036107d757604051633728b83d60e01b815260048101879052602401610602565b4285116108005760405163094793f560e41b815260048101869052426024820152604401610602565b6001600160a01b03831661083157604051628a35a360e61b81526001600160a01b0384166004820152602401610602565b604051632a3cb9c960e11b81526001600160a01b037f00000000000000000000000000000000000000000000000000000000000000001690635479739290610880903390600190600401611752565b602060405180830381865afa15801561089b573d5f803e3d5ffd5b505050506040513d601f19601f820116820180604052508101906108bf919061177f565b6108de576040516304cbf1b760e31b8152336004820152602401610602565b604051632a3cb9c960e11b81526001600160a01b037f0000000000000000000000000000000000000000000000000000000000000000169063547973929061092d908690600290600401611752565b602060405180830381865afa158015610948573d5f803e3d5ffd5b505050506040513d601f19601f8201168201806040525081019061096c919061177f565b61099457604051635d4535f560e11b81526001600160a01b0384166004820152602401610602565b6109c96001600160a01b037f000000000000000000000000000000000000000000000000000000000000000016338589611112565b604051632a1b1ec960e21b81525f906001600160a01b037f0000000000000000000000000000000000000000000000000000000000000000169063a86c7b2490610a219033908b908b908b908b908b9060040161179e565b6020604051808303815f875af1158015610a3d573d5f803e3d5ffd5b505050506040513d601f19601f82011682018060405250810190610a6191906117ff565b5f81815260036020908152604080832080546001600160a01b03191633908117909155600483528184208c90556006835292819020429055518a8152929350909183917fa89eb6891733765ee1680954e6c13fbca417ad37abee83d50d8efdb86a6db523910160405180910390a39050610ada60018055565b95945050505050565b5f8062015180610af38486611816565b610afd9190611829565b90506237b1d081610b0e8789611848565b610b189190611848565b610b229190611829565b9695505050505050565b7f97667070c54ef182b0f5858b034beac1b6f3089aa2d3188bb1e8929f4fa9b929610b5681611179565b604051631d11e60560e11b8152600481018390525f907f00000000000000000000000000000000000000000000000000000000000000006001600160a01b031690633a23cc0a906024015f60405180830381865afa158015610bba573d5f803e3d5ffd5b505050506040513d5f823e601f3d908101601f19168201604052610be1919081019061166a565b9050600281606001516004811115610bfb57610bfb611717565b14610c175782816060015160048111156105e1576105e1611717565b5f610c457f000000000000000000000000000000000000000000000000000000000000000062015180611848565b8260200151610c54919061173f565b9050804211610c865760405163f368c22560e01b81526004810185905260248101829052426044820152606401610602565b5f8481526005602052604090205415610cb55760405163046a2cf160e21b815260048101859052602401610602565b604051633a1b3d3160e01b81526001600160a01b037f00000000000000000000000000000000000000000000000000000000000000001690633a1b3d3190610d03908790600490810161185f565b5f604051808303815f87803b158015610d1a575f80fd5b505af1158015610d2c573d5f803e3d5ffd5b5050505f8581526003602090815260408083205460048352928190205490518181526001600160a01b03909316935091839188917f7efcf3175a39d7e04b5ee348b56c5a07a158d5d416d96a6eb4dc04a9a5cac9b4910160405180910390a3505050505050565b7f65d7a28e3265b37a6474929f336521b332c1681b933f6cb9f3376673440d862a610dbd81611179565b61070c6112cd565b5f918252602082815260408084206001600160a01b0393909316845291905290205460ff1690565b604051631d11e60560e11b8152600481018290525f9081906001600160a01b037f00000000000000000000000000000000000000000000000000000000000000001690633a23cc0a906024015f60405180830381865afa158015610e53573d5f803e3d5ffd5b505050506040513d5f823e601f3d908101601f19168201604052610e7a919081019061166a565b9050600281606001516004811115610e9457610e94611717565b14610ea157505f92915050565b5f610ecf7f000000000000000000000000000000000000000000000000000000000000000062015180611848565b8260200151610ede919061173f565b90508042118015610efa57505f84815260056020526040902054155b949350505050565b5f82815260208190526040902060010154610f1c81611179565b6107338383611212565b7f97667070c54ef182b0f5858b034beac1b6f3089aa2d3188bb1e8929f4fa9b929610f5081611179565b610f586110c2565b610f606110ec565b5f828152600560205260408120549003610f90576040516323ec1f2d60e01b815260048101839052602401610602565b5f828152600360209081526040808320546005909252909120546001600160a01b0391821691610fe3907f000000000000000000000000000000000000000000000000000000000000000016838361130a565b5f848152600560205260408082209190915551633a1b3d3160e01b81526001600160a01b037f00000000000000000000000000000000000000000000000000000000000000001690633a1b3d319061104290879060039060040161185f565b5f604051808303815f87803b158015611059575f80fd5b505af115801561106b573d5f803e3d5ffd5b50505050816001600160a01b0316847fcf8bb7892c3d502fcad5237148811a7ea198bab1573918213e27ff7d3c2ac3f9836040516110ab91815260200190565b60405180910390a350506110be60018055565b5050565b6002600154036110e557604051633ee5aeb560e01b815260040160405180910390fd5b6002600155565b60025460ff16156111105760405163d93c066560e01b815260040160405180910390fd5b565b6040516001600160a01b0384811660248301528381166044830152606482018390526107339186918216906323b872dd906084015b604051602081830303815290604052915060e01b6020820180516001600160e01b03838183161783525050505061133b565b61070c81336113a7565b5f61118e8383610dc5565b61120b575f838152602081815260408083206001600160a01b03861684529091529020805460ff191660011790556111c33390565b6001600160a01b0316826001600160a01b0316847f2f8788117e7eff1d82e926ec794901d17c78024a50270940304540a733656f0d60405160405180910390a450600161050a565b505f61050a565b5f61121d8383610dc5565b1561120b575f838152602081815260408083206001600160a01b0386168085529252808320805460ff1916905551339286917ff6391f5c32d9c69d2a47ea670b442974b53935d1edc7fd64eb21e047a839171b9190a450600161050a565b6112836113e0565b6002805460ff191690557f5db9ee0a495bf2e6ff9c91a7834c1ba4fdd244a5e8aa4e537bd38aeae4b073aa335b6040516001600160a01b03909116815260200160405180910390a1565b6112d56110ec565b6002805460ff191660011790557f62e78cea01bee320cd4e420270b5ea74000d11b0c9f74754ebdbfc544b05a2586112b03390565b6040516001600160a01b0383811660248301526044820183905261076c91859182169063a9059cbb90606401611147565b5f8060205f8451602086015f885af18061135a576040513d5f823e3d81fd5b50505f513d9150811561137157806001141561137e565b6001600160a01b0384163b155b1561073357604051635274afe760e01b81526001600160a01b0385166004820152602401610602565b6113b18282610dc5565b6110be5760405163e2517d3f60e01b81526001600160a01b038216600482015260248101839052604401610602565b60025460ff1661111057604051638dfc202b60e01b815260040160405180910390fd5b5f60208284031215611413575f80fd5b81356001600160e01b03198116811461142a575f80fd5b9392505050565b5f60208284031215611441575f80fd5b5035919050565b6001600160a01b038116811461070c575f80fd5b5f806040838503121561146d575f80fd5b82359150602083013561147f81611448565b809150509250929050565b634e487b7160e01b5f52604160045260245ffd5b60405160c0810167ffffffffffffffff811182821017156114c1576114c161148a565b60405290565b604051601f8201601f1916810167ffffffffffffffff811182821017156114f0576114f061148a565b604052919050565b5f67ffffffffffffffff8211156115115761151161148a565b50601f01601f191660200190565b5f805f805f60a08688031215611533575f80fd5b853594506020860135935060408601359250606086013561155381611448565b9150608086013567ffffffffffffffff81111561156e575f80fd5b8601601f8101881361157e575f80fd5b803561159161158c826114f8565b6114c7565b8181528960208385010111156115a5575f80fd5b816020840160208301375f602083830101528093505050509295509295909350565b5f805f80608085870312156115da575f80fd5b5050823594602084013594506040840135936060013592509050565b805161160181611448565b919050565b5f5b83811015611620578181015183820152602001611608565b50505f910152565b5f82601f830112611637575f80fd5b815161164561158c826114f8565b818152846020838601011115611659575f80fd5b610efa826020830160208701611606565b5f6020828403121561167a575f80fd5b815167ffffffffffffffff80821115611691575f80fd5b9083019060c082860312156116a4575f80fd5b6116ac61149e565b8251815260208301516020820152604083015160408201526060830151600581106116d5575f80fd5b60608201526116e6608084016115f6565b608082015260a0830151828111156116fc575f80fd5b61170887828601611628565b60a08301525095945050505050565b634e487b7160e01b5f52602160045260245ffd5b634e487b7160e01b5f52601160045260245ffd5b8082018082111561050a5761050a61172b565b6001600160a01b0383168152604081016003831061177257611772611717565b8260208301529392505050565b5f6020828403121561178f575f80fd5b8151801515811461142a575f80fd5b5f60018060a01b03808916835287602084015286604084015285606084015280851660808401525060c060a083015282518060c08401526117e68160e0850160208701611606565b601f01601f19169190910160e001979650505050505050565b5f6020828403121561180f575f80fd5b5051919050565b8181038181111561050a5761050a61172b565b5f8261184357634e487b7160e01b5f52601260045260245ffd5b500490565b808202811582820484141761050a5761050a61172b565b82815260408101600583106117725761177261171756fea2646970667358221220056352e4aa0f908997697a8ffaddda9622a8103611fa6e3c24aeefd526e671a664736f6c63430008140033",
  "linkReferences": {},
  "deployedLinkReferences": {},
  "immutableReferences": {
    "8164": [
      {
        "length": 32,
        "start": 554
      },
      {
        "length": 32,
        "start": 1672
      },
      {
        "length": 32,
        "start": 2465
      },
      {
        "length": 32,
        "start": 4028
      }
    ],
    "8168": [
      {
        "length": 32,
        "start": 720
      },
      {
        "length": 32,
        "start": 1336
      },
      {
        "length": 32,
        "start": 2530
      },
      {
        "length": 32,
        "start": 2926
      },
      {
        "length": 32,
        "start": 3276
      },
      {
        "length": 32,
        "start": 3599
      },
      {
        "length": 32,
        "start": 4106
      }
    ],
    "8172": [
      {
        "length": 32,
        "start": 778
      },
      {
        "length": 32,
        "start": 2120
      },
      {
        "length": 32,
        "start": 2293
      }
    ],
    "8195": [
      {
        "length": 32,
        "start": 971
      },
      {
        "length": 32,
        "start": 3101
      },
      {
        "length": 32,
        "start": 3751
      }
    ]
  },
  "inputSourceName": "project/contracts/InvoiceFundingPool.sol",
  "buildInfoId": "solc-0_8_20-367831596820ebb7fb9058ef61fec29fd380fc69"
}